{
  "_format": "hh-sol-artifact-1",
  "contractName": "DaoSimpleToken",
  "sourceName": "contracts/GovernanceToken.sol",
  "abi": [
    {
      "inputs": [],
      "stateMutability": "nonpayable",
      "type": "constructor"
    },
    {
      "anonymous": false,
      "inputs": [
        {
          "indexed": true,
          "internalType": "address",
          "name": "owner",
          "type": "address"
        },
        {
          "indexed": true,
          "internalType": "address",
          "name": "spender",
          "type": "address"
        },
        {
          "indexed": false,
          "internalType": "uint256",
          "name": "value",
          "type": "uint256"
        }
      ],
      "name": "Approval",
      "type": "event"
    },
    {
      "anonymous": false,
      "inputs": [
        {
          "indexed": true,
          "internalType": "address",
          "name": "delegator",
          "type": "address"
        },
        {
          "indexed": true,
          "internalType": "address",
          "name": "fromDelegate",
          "type": "address"
        },
        {
          "indexed": true,
          "internalType": "address",
          "name": "toDelegate",
          "type": "address"
        }
      ],
      "name": "DelegateChanged",
      "type": "event"
    },
    {
      "anonymous": false,
      "inputs": [
        {
          "indexed": true,
          "internalType": "address",
          "name": "delegate",
          "type": "address"
        },
        {
          "indexed": false,
          "internalType": "uint256",
          "name": "previousBalance",
          "type": "uint256"
        },
        {
          "indexed": false,
          "internalType": "uint256",
          "name": "newBalance",
          "type": "uint256"
        }
      ],
      "name": "DelegateVotesChanged",
      "type": "event"
    },
    {
      "anonymous": false,
      "inputs": [
        {
          "indexed": true,
          "internalType": "address",
          "name": "from",
          "type": "address"
        },
        {
          "indexed": true,
          "internalType": "address",
          "name": "to",
          "type": "address"
        },
        {
          "indexed": false,
          "internalType": "uint256",
          "name": "value",
          "type": "uint256"
        }
      ],
      "name": "Transfer",
      "type": "event"
    },
    {
      "inputs": [],
      "name": "DOMAIN_SEPARATOR",
      "outputs": [
        {
          "internalType": "bytes32",
          "name": "",
          "type": "bytes32"
        }
      ],
      "stateMutability": "view",
      "type": "function"
    },
    {
      "inputs": [
        {
          "internalType": "address",
          "name": "owner",
          "type": "address"
        },
        {
          "internalType": "address",
          "name": "spender",
          "type": "address"
        }
      ],
      "name": "allowance",
      "outputs": [
        {
          "internalType": "uint256",
          "name": "",
          "type": "uint256"
        }
      ],
      "stateMutability": "view",
      "type": "function"
    },
    {
      "inputs": [
        {
          "internalType": "address",
          "name": "spender",
          "type": "address"
        },
        {
          "internalType": "uint256",
          "name": "amount",
          "type": "uint256"
        }
      ],
      "name": "approve",
      "outputs": [
        {
          "internalType": "bool",
          "name": "",
          "type": "bool"
        }
      ],
      "stateMutability": "nonpayable",
      "type": "function"
    },
    {
      "inputs": [
        {
          "internalType": "address",
          "name": "account",
          "type": "address"
        }
      ],
      "name": "balanceOf",
      "outputs": [
        {
          "internalType": "uint256",
          "name": "",
          "type": "uint256"
        }
      ],
      "stateMutability": "view",
      "type": "function"
    },
    {
      "inputs": [
        {
          "internalType": "address",
          "name": "account",
          "type": "address"
        },
        {
          "internalType": "uint32",
          "name": "pos",
          "type": "uint32"
        }
      ],
      "name": "checkpoints",
      "outputs": [
        {
          "components": [
            {
              "internalType": "uint32",
              "name": "fromBlock",
              "type": "uint32"
            },
            {
              "internalType": "uint224",
              "name": "votes",
              "type": "uint224"
            }
          ],
          "internalType": "struct ERC20Votes.Checkpoint",
          "name": "",
          "type": "tuple"
        }
      ],
      "stateMutability": "view",
      "type": "function"
    },
    {
      "inputs": [],
      "name": "decimals",
      "outputs": [
        {
          "internalType": "uint8",
          "name": "",
          "type": "uint8"
        }
      ],
      "stateMutability": "view",
      "type": "function"
    },
    {
      "inputs": [
        {
          "internalType": "address",
          "name": "spender",
          "type": "address"
        },
        {
          "internalType": "uint256",
          "name": "subtractedValue",
          "type": "uint256"
        }
      ],
      "name": "decreaseAllowance",
      "outputs": [
        {
          "internalType": "bool",
          "name": "",
          "type": "bool"
        }
      ],
      "stateMutability": "nonpayable",
      "type": "function"
    },
    {
      "inputs": [
        {
          "internalType": "address",
          "name": "delegatee",
          "type": "address"
        }
      ],
      "name": "delegate",
      "outputs": [],
      "stateMutability": "nonpayable",
      "type": "function"
    },
    {
      "inputs": [
        {
          "internalType": "address",
          "name": "delegatee",
          "type": "address"
        },
        {
          "internalType": "uint256",
          "name": "nonce",
          "type": "uint256"
        },
        {
          "internalType": "uint256",
          "name": "expiry",
          "type": "uint256"
        },
        {
          "internalType": "uint8",
          "name": "v",
          "type": "uint8"
        },
        {
          "internalType": "bytes32",
          "name": "r",
          "type": "bytes32"
        },
        {
          "internalType": "bytes32",
          "name": "s",
          "type": "bytes32"
        }
      ],
      "name": "delegateBySig",
      "outputs": [],
      "stateMutability": "nonpayable",
      "type": "function"
    },
    {
      "inputs": [
        {
          "internalType": "address",
          "name": "account",
          "type": "address"
        }
      ],
      "name": "delegates",
      "outputs": [
        {
          "internalType": "address",
          "name": "",
          "type": "address"
        }
      ],
      "stateMutability": "view",
      "type": "function"
    },
    {
      "inputs": [
        {
          "internalType": "uint256",
          "name": "blockNumber",
          "type": "uint256"
        }
      ],
      "name": "getPastTotalSupply",
      "outputs": [
        {
          "internalType": "uint256",
          "name": "",
          "type": "uint256"
        }
      ],
      "stateMutability": "view",
      "type": "function"
    },
    {
      "inputs": [
        {
          "internalType": "address",
          "name": "account",
          "type": "address"
        },
        {
          "internalType": "uint256",
          "name": "blockNumber",
          "type": "uint256"
        }
      ],
      "name": "getPastVotes",
      "outputs": [
        {
          "internalType": "uint256",
          "name": "",
          "type": "uint256"
        }
      ],
      "stateMutability": "view",
      "type": "function"
    },
    {
      "inputs": [
        {
          "internalType": "address",
          "name": "account",
          "type": "address"
        }
      ],
      "name": "getVotes",
      "outputs": [
        {
          "internalType": "uint256",
          "name": "",
          "type": "uint256"
        }
      ],
      "stateMutability": "view",
      "type": "function"
    },
    {
      "inputs": [
        {
          "internalType": "address",
          "name": "spender",
          "type": "address"
        },
        {
          "internalType": "uint256",
          "name": "addedValue",
          "type": "uint256"
        }
      ],
      "name": "increaseAllowance",
      "outputs": [
        {
          "internalType": "bool",
          "name": "",
          "type": "bool"
        }
      ],
      "stateMutability": "nonpayable",
      "type": "function"
    },
    {
      "inputs": [],
      "name": "name",
      "outputs": [
        {
          "internalType": "string",
          "name": "",
          "type": "string"
        }
      ],
      "stateMutability": "view",
      "type": "function"
    },
    {
      "inputs": [
        {
          "internalType": "address",
          "name": "owner",
          "type": "address"
        }
      ],
      "name": "nonces",
      "outputs": [
        {
          "internalType": "uint256",
          "name": "",
          "type": "uint256"
        }
      ],
      "stateMutability": "view",
      "type": "function"
    },
    {
      "inputs": [
        {
          "internalType": "address",
          "name": "account",
          "type": "address"
        }
      ],
      "name": "numCheckpoints",
      "outputs": [
        {
          "internalType": "uint32",
          "name": "",
          "type": "uint32"
        }
      ],
      "stateMutability": "view",
      "type": "function"
    },
    {
      "inputs": [
        {
          "internalType": "address",
          "name": "owner",
          "type": "address"
        },
        {
          "internalType": "address",
          "name": "spender",
          "type": "address"
        },
        {
          "internalType": "uint256",
          "name": "value",
          "type": "uint256"
        },
        {
          "internalType": "uint256",
          "name": "deadline",
          "type": "uint256"
        },
        {
          "internalType": "uint8",
          "name": "v",
          "type": "uint8"
        },
        {
          "internalType": "bytes32",
          "name": "r",
          "type": "bytes32"
        },
        {
          "internalType": "bytes32",
          "name": "s",
          "type": "bytes32"
        }
      ],
      "name": "permit",
      "outputs": [],
      "stateMutability": "nonpayable",
      "type": "function"
    },
    {
      "inputs": [],
      "name": "s_maxSupply",
      "outputs": [
        {
          "internalType": "uint256",
          "name": "",
          "type": "uint256"
        }
      ],
      "stateMutability": "view",
      "type": "function"
    },
    {
      "inputs": [],
      "name": "symbol",
      "outputs": [
        {
          "internalType": "string",
          "name": "",
          "type": "string"
        }
      ],
      "stateMutability": "view",
      "type": "function"
    },
    {
      "inputs": [],
      "name": "totalSupply",
      "outputs": [
        {
          "internalType": "uint256",
          "name": "",
          "type": "uint256"
        }
      ],
      "stateMutability": "view",
      "type": "function"
    },
    {
      "inputs": [
        {
          "internalType": "address",
          "name": "to",
          "type": "address"
        },
        {
          "internalType": "uint256",
          "name": "amount",
          "type": "uint256"
        }
      ],
      "name": "transfer",
      "outputs": [
        {
          "internalType": "bool",
          "name": "",
          "type": "bool"
        }
      ],
      "stateMutability": "nonpayable",
      "type": "function"
    },
    {
      "inputs": [
        {
          "internalType": "address",
          "name": "from",
          "type": "address"
        },
        {
          "internalType": "address",
          "name": "to",
          "type": "address"
        },
        {
          "internalType": "uint256",
          "name": "amount",
          "type": "uint256"
        }
      ],
      "name": "transferFrom",
      "outputs": [
        {
          "internalType": "bool",
          "name": "",
          "type": "bool"
        }
      ],
      "stateMutability": "nonpayable",
      "type": "function"
    }
  ],
  "bytecode": "0x61014060405269d3c21bcecceda1000000600a553480156200002057600080fd5b506040518060400160405280600e81526020016d2230b7a9b4b6b83632aa37b5b2b760911b81525080604051806040016040528060018152602001603160f81b8152506040518060400160405280600e81526020016d2230b7a9b4b6b83632aa37b5b2b760911b815250604051806040016040528060038152602001621114d560ea1b8152508160039080519060200190620000be92919062000739565b508051620000d490600490602084019062000739565b5050825160209384012082519284019290922060e08390526101008190524660a0818152604080517f8b73c3c69bb8fe3d512ecc4cf759cc79239f7b179b0ffacaa9a75d522b39400f818901819052818301979097526060810194909452608080850193909352308483018190528151808603909301835260c094850190915281519190960120905292909252610120525050600a54620001779033906200017d565b6200085d565b6200019482826200019860201b62000a1a1760201c565b5050565b620001af82826200024f60201b62000aaa1760201c565b6001600160e01b03620001c36200031c8216565b1115620002305760405162461bcd60e51b815260206004820152603060248201527f4552433230566f7465733a20746f74616c20737570706c79207269736b73206f60448201526f766572666c6f77696e6720766f74657360801b60648201526084015b60405180910390fd5b62000249600962000b756200032260201b178362000337565b50505050565b6001600160a01b038216620002a75760405162461bcd60e51b815260206004820152601f60248201527f45524332303a206d696e7420746f20746865207a65726f206164647265737300604482015260640162000227565b8060026000828254620002bb9190620007eb565b90915550506001600160a01b038216600081815260208181526040808320805486019055518481527fddf252ad1be2c89b69c2b068fc378daa952ba7f163c4a11628f55a4df523b3ef910160405180910390a36200019460008383620004ce565b60025490565b6000620003308284620007eb565b9392505050565b82546000908190818115620003975762000366876200035860018562000806565b600091825260209091200190565b60408051808201909152905463ffffffff8116825264010000000090046001600160e01b03166020820152620003ac565b60408051808201909152600080825260208201525b905080602001516001600160e01b03169350620003ca84868860201c565b9250600082118015620003e35750805163ffffffff1643145b156200043a57620003ff83620004e660201b62000b811760201c565b62000411886200035860018662000806565b80546001600160e01b03929092166401000000000263ffffffff909216919091179055620004bf565b8660405180604001604052806200045c436200055560201b62000bee1760201c565b63ffffffff1681526020016200047d86620004e660201b62000b811760201c565b6001600160e01b0390811690915282546001810184556000938452602093849020835194909301519091166401000000000263ffffffff909316929092179101555b5050935093915050565b505050565b620004c9838383620005bc60201b62000c531760201c565b60006001600160e01b03821115620005515760405162461bcd60e51b815260206004820152602760248201527f53616665436173743a2076616c756520646f65736e27742066697420696e20326044820152663234206269747360c81b606482015260840162000227565b5090565b600063ffffffff821115620005515760405162461bcd60e51b815260206004820152602660248201527f53616665436173743a2076616c756520646f65736e27742066697420696e203360448201526532206269747360d01b606482015260840162000227565b620005d4838383620004c960201b62000c851760201c565b6001600160a01b03838116600090815260076020526040808220548584168352912054620004c992918216911683818314801590620006135750600081115b15620004c9576001600160a01b03831615620006a0576001600160a01b0383166000908152600860209081526040822082916200065d91906200072b901b62000c8a178562000337565b91509150846001600160a01b031660008051602062002577833981519152838360405162000695929190918252602082015260400190565b60405180910390a250505b6001600160a01b03821615620004c9576001600160a01b038216600090815260086020908152604082208291620006e4919062000322901b62000b75178562000337565b91509150836001600160a01b03166000805160206200257783398151915283836040516200071c929190918252602082015260400190565b60405180910390a25050505050565b600062000330828462000806565b828054620007479062000820565b90600052602060002090601f0160209004810192826200076b5760008555620007b6565b82601f106200078657805160ff1916838001178555620007b6565b82800160010185558215620007b6579182015b82811115620007b657825182559160200191906001019062000799565b50620005519291505b80821115620005515760008155600101620007bf565b634e487b7160e01b600052601160045260246000fd5b60008219821115620008015762000801620007d5565b500190565b6000828210156200081b576200081b620007d5565b500390565b600181811c908216806200083557607f821691505b602082108114156200085757634e487b7160e01b600052602260045260246000fd5b50919050565b60805160a05160c05160e0516101005161012051611cca620008ad6000396000611062015260006110b10152600061108c01526000610fe50152600061100f015260006110390152611cca6000f3fe608060405234801561001057600080fd5b506004361061014d5760003560e01c80636fcfff45116100c3578063a457c2d71161007c578063a457c2d7146102e9578063a9059cbb146102fc578063c3cda5201461030f578063d505accf14610322578063dd62ed3e14610335578063f1127ed81461034857600080fd5b80636fcfff451461025757806370a082311461027f5780637ecebe00146102a85780638e539e8c146102bb57806395d89b41146102ce5780639ab24eb0146102d657600080fd5b80633644e515116101155780633644e515146101c757806339509351146101cf5780633a46b1a8146101e2578063587cde1e146101f55780635c19a95c146102395780635d6418471461024e57600080fd5b806306fdde0314610152578063095ea7b31461017057806318160ddd1461019357806323b872dd146101a5578063313ce567146101b8575b600080fd5b61015a610385565b6040516101679190611965565b60405180910390f35b61018361017e3660046119d6565b610417565b6040519015158152602001610167565b6002545b604051908152602001610167565b6101836101b3366004611a00565b61042f565b60405160128152602001610167565b610197610453565b6101836101dd3660046119d6565b610462565b6101976101f03660046119d6565b610484565b610221610203366004611a3c565b6001600160a01b039081166000908152600760205260409020541690565b6040516001600160a01b039091168152602001610167565b61024c610247366004611a3c565b610503565b005b610197600a5481565b61026a610265366004611a3c565b610510565b60405163ffffffff9091168152602001610167565b61019761028d366004611a3c565b6001600160a01b031660009081526020819052604090205490565b6101976102b6366004611a3c565b610538565b6101976102c9366004611a57565b610556565b61015a6105b2565b6101976102e4366004611a3c565b6105c1565b6101836102f73660046119d6565b610648565b61018361030a3660046119d6565b6106c3565b61024c61031d366004611a81565b6106d1565b61024c610330366004611ad9565b610807565b610197610343366004611b43565b61096b565b61035b610356366004611b76565b610996565b60408051825163ffffffff1681526020928301516001600160e01b03169281019290925201610167565b60606003805461039490611bb6565b80601f01602080910402602001604051908101604052809291908181526020018280546103c090611bb6565b801561040d5780601f106103e25761010080835404028352916020019161040d565b820191906000526020600020905b8154815290600101906020018083116103f057829003601f168201915b5050505050905090565b600033610425818585610c96565b5060019392505050565b60003361043d858285610dba565b610448858585610e2e565b506001949350505050565b600061045d610fd8565b905090565b600033610425818585610475838361096b565b61047f9190611c01565b610c96565b60004382106104da5760405162461bcd60e51b815260206004820152601f60248201527f4552433230566f7465733a20626c6f636b206e6f7420796574206d696e65640060448201526064015b60405180910390fd5b6001600160a01b03831660009081526008602052604090206104fc90836110ff565b9392505050565b61050d33826111f6565b50565b6001600160a01b03811660009081526008602052604081205461053290610bee565b92915050565b6001600160a01b038116600090815260056020526040812054610532565b60004382106105a75760405162461bcd60e51b815260206004820152601f60248201527f4552433230566f7465733a20626c6f636b206e6f7420796574206d696e65640060448201526064016104d1565b6105326009836110ff565b60606004805461039490611bb6565b6001600160a01b0381166000908152600860205260408120548015610635576001600160a01b0383166000908152600860205260409020610603600183611c19565b8154811061061357610613611c30565b60009182526020909120015464010000000090046001600160e01b0316610638565b60005b6001600160e01b03169392505050565b60003381610656828661096b565b9050838110156106b65760405162461bcd60e51b815260206004820152602560248201527f45524332303a2064656372656173656420616c6c6f77616e63652062656c6f77604482015264207a65726f60d81b60648201526084016104d1565b6104488286868403610c96565b600033610425818585610e2e565b834211156107215760405162461bcd60e51b815260206004820152601d60248201527f4552433230566f7465733a207369676e6174757265206578706972656400000060448201526064016104d1565b604080517fe48329057bfd03d55e49b547132e39cffd9c1820ad7b9d4c5307691425d15adf60208201526001600160a01b03881691810191909152606081018690526080810185905260009061079b906107939060a0016040516020818303038152906040528051906020012061126f565b8585856112bd565b90506107a6816112e5565b86146107f45760405162461bcd60e51b815260206004820152601960248201527f4552433230566f7465733a20696e76616c6964206e6f6e63650000000000000060448201526064016104d1565b6107fe81886111f6565b50505050505050565b834211156108575760405162461bcd60e51b815260206004820152601d60248201527f45524332305065726d69743a206578706972656420646561646c696e6500000060448201526064016104d1565b60007f6e71edae12b1b97f4d1f60370fef10105fa2faae0126114a169c64845d6126c98888886108868c6112e5565b6040805160208101969096526001600160a01b0394851690860152929091166060840152608083015260a082015260c0810186905260e00160405160208183030381529060405280519060200120905060006108e18261126f565b905060006108f1828787876112bd565b9050896001600160a01b0316816001600160a01b0316146109545760405162461bcd60e51b815260206004820152601e60248201527f45524332305065726d69743a20696e76616c6964207369676e6174757265000060448201526064016104d1565b61095f8a8a8a610c96565b50505050505050505050565b6001600160a01b03918216600090815260016020908152604080832093909416825291909152205490565b60408051808201909152600080825260208201526001600160a01b0383166000908152600860205260409020805463ffffffff84169081106109da576109da611c30565b60009182526020918290206040805180820190915291015463ffffffff8116825264010000000090046001600160e01b0316918101919091529392505050565b610a248282610aaa565b6002546001600160e01b031015610a965760405162461bcd60e51b815260206004820152603060248201527f4552433230566f7465733a20746f74616c20737570706c79207269736b73206f60448201526f766572666c6f77696e6720766f74657360801b60648201526084016104d1565b610aa46009610b758361130d565b50505050565b6001600160a01b038216610b005760405162461bcd60e51b815260206004820152601f60248201527f45524332303a206d696e7420746f20746865207a65726f20616464726573730060448201526064016104d1565b8060026000828254610b129190611c01565b90915550506001600160a01b038216600081815260208181526040808320805486019055518481527fddf252ad1be2c89b69c2b068fc378daa952ba7f163c4a11628f55a4df523b3ef910160405180910390a3610b7160008383611461565b5050565b60006104fc8284611c01565b60006001600160e01b03821115610bea5760405162461bcd60e51b815260206004820152602760248201527f53616665436173743a2076616c756520646f65736e27742066697420696e20326044820152663234206269747360c81b60648201526084016104d1565b5090565b600063ffffffff821115610bea5760405162461bcd60e51b815260206004820152602660248201527f53616665436173743a2076616c756520646f65736e27742066697420696e203360448201526532206269747360d01b60648201526084016104d1565b6001600160a01b03838116600090815260076020526040808220548584168352912054610c859291821691168361146c565b505050565b60006104fc8284611c19565b6001600160a01b038316610cf85760405162461bcd60e51b8152602060048201526024808201527f45524332303a20617070726f76652066726f6d20746865207a65726f206164646044820152637265737360e01b60648201526084016104d1565b6001600160a01b038216610d595760405162461bcd60e51b815260206004820152602260248201527f45524332303a20617070726f766520746f20746865207a65726f206164647265604482015261737360f01b60648201526084016104d1565b6001600160a01b0383811660008181526001602090815260408083209487168084529482529182902085905590518481527f8c5be1e5ebec7d5bd14f71427d1e84f3dd0314c0f7b2291e5b200ac8c7c3b925910160405180910390a3505050565b6000610dc6848461096b565b90506000198114610aa45781811015610e215760405162461bcd60e51b815260206004820152601d60248201527f45524332303a20696e73756666696369656e7420616c6c6f77616e636500000060448201526064016104d1565b610aa48484848403610c96565b6001600160a01b038316610e925760405162461bcd60e51b815260206004820152602560248201527f45524332303a207472616e736665722066726f6d20746865207a65726f206164604482015264647265737360d81b60648201526084016104d1565b6001600160a01b038216610ef45760405162461bcd60e51b815260206004820152602360248201527f45524332303a207472616e7366657220746f20746865207a65726f206164647260448201526265737360e81b60648201526084016104d1565b6001600160a01b03831660009081526020819052604090205481811015610f6c5760405162461bcd60e51b815260206004820152602660248201527f45524332303a207472616e7366657220616d6f756e7420657863656564732062604482015265616c616e636560d01b60648201526084016104d1565b6001600160a01b03848116600081815260208181526040808320878703905593871680835291849020805487019055925185815290927fddf252ad1be2c89b69c2b068fc378daa952ba7f163c4a11628f55a4df523b3ef910160405180910390a3610aa4848484611461565b6000306001600160a01b037f00000000000000000000000000000000000000000000000000000000000000001614801561103157507f000000000000000000000000000000000000000000000000000000000000000046145b1561105b57507f000000000000000000000000000000000000000000000000000000000000000090565b50604080517f00000000000000000000000000000000000000000000000000000000000000006020808301919091527f0000000000000000000000000000000000000000000000000000000000000000828401527f000000000000000000000000000000000000000000000000000000000000000060608301524660808301523060a0808401919091528351808403909101815260c0909201909252805191012090565b81546000908181600581111561115957600061111a846115a9565b6111249085611c19565b600088815260209020909150869082015463ffffffff16111561114957809150611157565b611154816001611c01565b92505b505b808210156111a657600061116d838361168e565b600088815260209020909150869082015463ffffffff161115611192578091506111a0565b61119d816001611c01565b92505b50611159565b80156111e0576111c9866111bb600184611c19565b600091825260209091200190565b5464010000000090046001600160e01b03166111e3565b60005b6001600160e01b03169695505050505050565b6001600160a01b038281166000818152600760208181526040808420805485845282862054949093528787166001600160a01b03198416811790915590519190951694919391928592917f3134e8a2e6d97e929a7e54011ea5485d7d196dd5f0ba4d4ef95803e8e3fc257f9190a4610aa482848361146c565b600061053261127c610fd8565b8360405161190160f01b6020820152602281018390526042810182905260009060620160405160208183030381529060405280519060200120905092915050565b60008060006112ce878787876116a9565b915091506112db8161176d565b5095945050505050565b6001600160a01b03811660009081526005602052604090208054600181018255905b50919050565b8254600090819081811561135a5761132a876111bb600185611c19565b60408051808201909152905463ffffffff8116825264010000000090046001600160e01b0316602082015261136f565b60408051808201909152600080825260208201525b905080602001516001600160e01b0316935061138f84868863ffffffff16565b92506000821180156113a75750805163ffffffff1643145b156113ec576113b583610b81565b6113c4886111bb600186611c19565b80546001600160e01b03929092166401000000000263ffffffff909216919091179055611457565b86604051806040016040528061140143610bee565b63ffffffff16815260200161141586610b81565b6001600160e01b0390811690915282546001810184556000938452602093849020835194909301519091166401000000000263ffffffff909316929092179101555b5050935093915050565b610c85838383610c53565b816001600160a01b0316836001600160a01b03161415801561148e5750600081115b15610c85576001600160a01b0383161561151c576001600160a01b038316600090815260086020526040812081906114c990610c8a8561130d565b91509150846001600160a01b03167fdec2bacdd2f05b59de34da9b523dff8be42e5e38e818c82fdb0bae774387a7248383604051611511929190918252602082015260400190565b60405180910390a250505b6001600160a01b03821615610c85576001600160a01b0382166000908152600860205260408120819061155290610b758561130d565b91509150836001600160a01b03167fdec2bacdd2f05b59de34da9b523dff8be42e5e38e818c82fdb0bae774387a724838360405161159a929190918252602082015260400190565b60405180910390a25050505050565b6000816115b857506000919050565b600060016115c5846118bb565b901c6001901b905060018184816115de576115de611c46565b048201901c905060018184816115f6576115f6611c46565b048201901c9050600181848161160e5761160e611c46565b048201901c9050600181848161162657611626611c46565b048201901c9050600181848161163e5761163e611c46565b048201901c9050600181848161165657611656611c46565b048201901c9050600181848161166e5761166e611c46565b048201901c90506104fc8182858161168857611688611c46565b0461194f565b600061169d6002848418611c5c565b6104fc90848416611c01565b6000807f7fffffffffffffffffffffffffffffff5d576e7357a4501ddfe92f46681b20a08311156116e05750600090506003611764565b6040805160008082526020820180845289905260ff881692820192909252606081018690526080810185905260019060a0016020604051602081039080840390855afa158015611734573d6000803e3d6000fd5b5050604051601f1901519150506001600160a01b03811661175d57600060019250925050611764565b9150600090505b94509492505050565b600081600481111561178157611781611c7e565b141561178a5750565b600181600481111561179e5761179e611c7e565b14156117ec5760405162461bcd60e51b815260206004820152601860248201527f45434453413a20696e76616c6964207369676e6174757265000000000000000060448201526064016104d1565b600281600481111561180057611800611c7e565b141561184e5760405162461bcd60e51b815260206004820152601f60248201527f45434453413a20696e76616c6964207369676e6174757265206c656e6774680060448201526064016104d1565b600381600481111561186257611862611c7e565b141561050d5760405162461bcd60e51b815260206004820152602260248201527f45434453413a20696e76616c6964207369676e6174757265202773272076616c604482015261756560f01b60648201526084016104d1565b600080608083901c156118d057608092831c92015b604083901c156118e257604092831c92015b602083901c156118f457602092831c92015b601083901c1561190657601092831c92015b600883901c1561191857600892831c92015b600483901c1561192a57600492831c92015b600283901c1561193c57600292831c92015b600183901c156105325760010192915050565b600081831061195e57816104fc565b5090919050565b600060208083528351808285015260005b8181101561199257858101830151858201604001528201611976565b818111156119a4576000604083870101525b50601f01601f1916929092016040019392505050565b80356001600160a01b03811681146119d157600080fd5b919050565b600080604083850312156119e957600080fd5b6119f2836119ba565b946020939093013593505050565b600080600060608486031215611a1557600080fd5b611a1e846119ba565b9250611a2c602085016119ba565b9150604084013590509250925092565b600060208284031215611a4e57600080fd5b6104fc826119ba565b600060208284031215611a6957600080fd5b5035919050565b803560ff811681146119d157600080fd5b60008060008060008060c08789031215611a9a57600080fd5b611aa3876119ba565b95506020870135945060408701359350611abf60608801611a70565b92506080870135915060a087013590509295509295509295565b600080600080600080600060e0888a031215611af457600080fd5b611afd886119ba565b9650611b0b602089016119ba565b95506040880135945060608801359350611b2760808901611a70565b925060a0880135915060c0880135905092959891949750929550565b60008060408385031215611b5657600080fd5b611b5f836119ba565b9150611b6d602084016119ba565b90509250929050565b60008060408385031215611b8957600080fd5b611b92836119ba565b9150602083013563ffffffff81168114611bab57600080fd5b809150509250929050565b600181811c90821680611bca57607f821691505b6020821081141561130757634e487b7160e01b600052602260045260246000fd5b634e487b7160e01b600052601160045260246000fd5b60008219821115611c1457611c14611beb565b500190565b600082821015611c2b57611c2b611beb565b500390565b634e487b7160e01b600052603260045260246000fd5b634e487b7160e01b600052601260045260246000fd5b600082611c7957634e487b7160e01b600052601260045260246000fd5b500490565b634e487b7160e01b600052602160045260246000fdfea2646970667358221220a80efb96b80450d941e508eef114fc8cd6330e4f2b5983b00082227fb3cdb28164736f6c63430008090033dec2bacdd2f05b59de34da9b523dff8be42e5e38e818c82fdb0bae774387a724",
  "linkReferences": {},
  "deployedLinkReferences": {}
}