{
  "_format": "hh-sol-artifact-1",
  "contractName": "SimpleDAO",
  "sourceName": "contracts/Box.sol",
  "abi": [
    {
      "anonymous": false,
      "inputs": [
        {
          "indexed": true,
          "internalType": "address",
          "name": "previousOwner",
          "type": "address"
        },
        {
          "indexed": true,
          "internalType": "address",
          "name": "newOwner",
          "type": "address"
        }
      ],
      "name": "OwnershipTransferred",
      "type": "event"
    },
    {
      "anonymous": false,
      "inputs": [
        {
          "indexed": false,
          "internalType": "string",
          "name": "newValue",
          "type": "string"
        }
      ],
      "name": "ValueChanged",
      "type": "event"
    },
    {
      "inputs": [],
      "name": "owner",
      "outputs": [
        {
          "internalType": "address",
          "name": "",
          "type": "address"
        }
      ],
      "stateMutability": "view",
      "type": "function"
    },
    {
      "inputs": [],
      "name": "renounceOwnership",
      "outputs": [],
      "stateMutability": "nonpayable",
      "type": "function"
    },
    {
      "inputs": [],
      "name": "retrieve",
      "outputs": [
        {
          "internalType": "string",
          "name": "",
          "type": "string"
        }
      ],
      "stateMutability": "view",
      "type": "function"
    },
    {
      "inputs": [
        {
          "internalType": "string",
          "name": "newValue",
          "type": "string"
        }
      ],
      "name": "store",
      "outputs": [],
      "stateMutability": "nonpayable",
      "type": "function"
    },
    {
      "inputs": [
        {
          "internalType": "address",
          "name": "newOwner",
          "type": "address"
        }
      ],
      "name": "transferOwnership",
      "outputs": [],
      "stateMutability": "nonpayable",
      "type": "function"
    }
  ],
  "bytecode": "0x608060405234801561001057600080fd5b5061001a3361001f565b61006f565b600080546001600160a01b038381166001600160a01b0319831681178455604051919092169283917f8be0079c531659141344cd1fd0a4f28419497f9722a3daafe3b4186f6b6457e09190a35050565b61053f8061007e6000396000f3fe608060405234801561001057600080fd5b50600436106100575760003560e01c8063131a06801461005c5780632e64cec114610071578063715018a61461008f5780638da5cb5b14610097578063f2fde38b146100b2575b600080fd5b61006f61006a366004610398565b6100c5565b005b61007961011b565b6040516100869190610449565b60405180910390f35b61006f6101ad565b6000546040516001600160a01b039091168152602001610086565b61006f6100c036600461049e565b6101c1565b6100cd61023f565b80516100e09060019060208401906102e9565b507fce59a1f2cca0fa1bf7d80c74a303393cb56e768ec38427649054a68be65e11d7816040516101109190610449565b60405180910390a150565b60606001805461012a906104ce565b80601f0160208091040260200160405190810160405280929190818152602001828054610156906104ce565b80156101a35780601f10610178576101008083540402835291602001916101a3565b820191906000526020600020905b81548152906001019060200180831161018657829003601f168201915b5050505050905090565b6101b561023f565b6101bf6000610299565b565b6101c961023f565b6001600160a01b0381166102335760405162461bcd60e51b815260206004820152602660248201527f4f776e61626c653a206e6577206f776e657220697320746865207a65726f206160448201526564647265737360d01b60648201526084015b60405180910390fd5b61023c81610299565b50565b6000546001600160a01b031633146101bf5760405162461bcd60e51b815260206004820181905260248201527f4f776e61626c653a2063616c6c6572206973206e6f7420746865206f776e6572604482015260640161022a565b600080546001600160a01b038381166001600160a01b0319831681178455604051919092169283917f8be0079c531659141344cd1fd0a4f28419497f9722a3daafe3b4186f6b6457e09190a35050565b8280546102f5906104ce565b90600052602060002090601f016020900481019282610317576000855561035d565b82601f1061033057805160ff191683800117855561035d565b8280016001018555821561035d579182015b8281111561035d578251825591602001919060010190610342565b5061036992915061036d565b5090565b5b80821115610369576000815560010161036e565b634e487b7160e01b600052604160045260246000fd5b6000602082840312156103aa57600080fd5b813567ffffffffffffffff808211156103c257600080fd5b818401915084601f8301126103d657600080fd5b8135818111156103e8576103e8610382565b604051601f8201601f19908116603f0116810190838211818310171561041057610410610382565b8160405282815287602084870101111561042957600080fd5b826020860160208301376000928101602001929092525095945050505050565b600060208083528351808285015260005b818110156104765785810183015185820160400152820161045a565b81811115610488576000604083870101525b50601f01601f1916929092016040019392505050565b6000602082840312156104b057600080fd5b81356001600160a01b03811681146104c757600080fd5b9392505050565b600181811c908216806104e257607f821691505b6020821081141561050357634e487b7160e01b600052602260045260246000fd5b5091905056fea2646970667358221220fbfd7798d9c37312273da47f6abffca508e2395868301db3713bdc638afa16b264736f6c63430008090033",
  "linkReferences": {},
  "deployedLinkReferences": {}
}